:0200000012C02C
:14002600CFE5D4E0CDBFDEBFC051D0400AEA08830024E0E6AB
:14003A00F0E010E0E437F10711F00192FBCF0083E6E2F0E066
:14004E00A0E6B0E010E0E632F10721F0C89531960D92F9CFEC
:1400620066D1FFCF222428BA8FEF87BB83E085BB8CE084BB4F
:1400760022BA80EF81BB089508951801015010402220D9F7E9
:14008A003320C9F70895BFD10CC0A8954427552702C04F5FC2
:14009E005F4F4830E4E05E07D0F3015010400030010789F7E3
:1400B200B1D10895039503950395039503950395039503955B
:1400C600039503950395039503950395039503950395039536
:1400DA00039503950395039503950395039503950395039522
:1400EE0003950395039503950395039503950395039503950E
:140102000395039503950395039503950395039503950395F9
:140116000395039503950395039503950395039503950395E5
:14012A00039503950395039503950395039508956AD1442756
:14013E003FC082E0809372009C9909C0209072003324822DA1
:140152008F5F809372002220A9F780917200813009F42FC024
:14016600A7DFA6DFA5DFA4DF222420926F009C9B03C081E0B1
:14017A0080936F0082E0809372009C9B09C02090720033248F
:14018E00822D8F5F809372002220A9F780917200813009F428
:1401A20010C020906400220C2092640020906F0030906400DE
:1401B6003228309264004395483008F4BECF28D10895A49A08
:1401CA00AC9802E110E05FDFA498AC9A6FDF6EDF6DDF6CDF18
:1401DE009C9B5DC081E08093720059C082E0809372009C999E
:1401F20009C0209072003324822D8F5F809372002220A9F7B3
:1402060080917200813009F448C082E0809372009C9B09C0C4
:14021A00209072003324822D8F5F809372002220A9F7809142
:14022E007200813009F435C081DF80917200813009F42FC027
:14024200209064002092690077DF80917200813009F425C00D
:1402560020906400209268006DDF80917200813009F41BC00E
:14026A00209064002092670063DF80917200813009F411C00F
:14027E00209064002092660059DF80917200813009F407C010
:14029200209064002092650002C09C9BA5CFA498AC9A20908E
:1402A600680030906900320C20906700320C20906600320CCC
:1402BA0030926F00209065003214A1F42090690020926C00D8
:1402CE002090680020926B002090670020926E00209066009A
:1402E20020926D002090650020926A00A498AC9A089582E037
:1402F6008BB988E18AB986E080BD222420BC8FE589B90895EC
:14030A005D9BFECF0CB908955F9BFECF0CB10895F894A4DE89
:14031E00AFDEE9DF83E085BF22242BBE29BE78940895F4DF3D
:14033200A498AC9A4AC047DF1AE000916C0049D000936F00F3
:14034600802F8F70829580936F001AE000916C003CD02090A9
:14035A006F00202A20926F0020926C00022DD0DF00916B00BD
:14036E00CDDF1AE000916E002ED000936F00802F8F70829511
:1403820080936F001AE000916E0021D020906F00202A2092E0
:140396006F0020926E00022DB5DF00916D00B2DF00916A0077
:1403AA00AFDF222420926F0008C00AE010E06BDE80916F00DF
:1403BE008F5F80936F0080916F00883CA0F3B5CF08956894C7
:1403D20001C0E8942A93FA92EA92FF24EE2420E1000FFF1CB5
:1403E600EE1CE11610F0E11A03952A95B9F70EF40E2DE9904A
:1403FA00F99029910895FA92EA92DA92CA92BA92AA927A93AA
:14040E006A935A934A930895E1E049915991E0FD089569917D
:140422007991E1FD0895A990B990E2FD0895C990D990E3FDA1
:080436000895E990F990089582
:00000001FF
